:0400000003EF05F015
:10060000004552524F52007269676874006C65660B
:100610007400783D2000793D20000D0A00757000BF
:0106200000D9
:10062200800E0E6E250E0F6E000E106E000E116EF5
:1006320084EC04F010EC05F0000E236E000E226E26
:10064200000E256E000E246E0C0E926E0C0E0F0123
:10065200386F0A0E806E030ECCEC04F001C022F05B
:1006620002C023F0120E016E060E026EEDEC04F0D3
:1006720022C008F023C009F0D5EC03F0070E216E6A
:10068200170E206E6A0EE82EFED7202EFCD7212EE2
:10069200FAD700D0030E926E030E0F01386F0A0EC6
:1006A200806E000ECCEC04F001C024F002C025F0F4
:1006B200160E016E060E026EEDEC04F024C008F078
:1006C20025C009F0D5EC03F01A0E016E060E026E7B
:1006D200EDEC04F0070E216E170E206E6A0EE82E66
:1006E200FED7202EFCD7212EFAD700D0235004E1CA
:1006F200440E225CD8A019D0235017E1DD0E225CF3
:10070200D8B013D0255004E1610E245CD8A00DD0DE
:1007120025500BE1B00E245CD8B007D00D0E016E4F
:10072200060E026EEDEC04F087D7235004E1B20E00
:10073200225CD8A019D02A0E225C020E2358D8B00F
:1007420013D0255004E1FA0E245CD8A00DD03E0E41
:10075200245C020E2558D8B007D01D0E016E060E7D
:10076200026EEDEC04F068D7E90E225C030E23580A
:10077200D8B013D02C0E245C010E2558D8A00DD071
:100782005F0E245C010E2558D8B007D0070E016E0B
:10079200060E026EEDEC04F04FD7010E016E060E4E
:1007A200026EEDEC04F048D7000E1E6E1E50010DD5
:1007B2000E0EF324D96E000EF420DA6E08C001F09A
:1007C20009C002F0000E046E0A0E036EABEC04F0D8
:1007D2000150300FDF6E08C001F009C002F0000EB8
:1007E200046E0A0E036E5BEC04F001C008F002C056
:1007F20009F01E2A08500910D8A4D8D71EC01FF02D
:100802001F50D8B41200FF0E0A6EFF0E0B6E1F505F
:100812000C6E0D6A0A500C260B500D220E0E0C2483
:10082200D96E000E0D20DA6EDF500AEC05F01F06BD
:10083200E7D7000E096E000E0A6E000E0B6E000E58
:100842000C6E0550061007100810D8B42AD0010EFD
:100852000D6E06D0D89005360636073608360D2AB4
:1008620008AEF8D7D89009360A360B360C36055042
:10087200015C065002580750035808500458D8A08B
:1008820009D00550015E0650025A0750035A08501B
:10089200045A0980D89008320732063205320D2EEA
:1008A200E1D709C001F00AC002F00BC003F00CC08E
:1008B20004F01200000E066E000E056E03500410C6
:1008C200D8B41CD0010E076E04D0D890033604367B
:1008D200072A04AEFAD7D890053606360350015CD3
:1008E20004500258D8A005D00350015E0450025AA9
:1008F2000580D89004320332072EEDD705C001F0EF
:1009020006C002F01200000EAC6E000EAB6EAC9888
:10091200B886AB8EAB88AC84AC8A000E016E090E31
:10092200026E3D0E036E000E046E0EC005F00FC087
:1009320006F010C007F011C008F01AEC04F0FF0E28
:100942000124126EFF0E0220136E1350B06E12C0FD
:10095200AFFF120003500410D8B418D0010E056E78
:1009620004D0D89003360436052A04AEFAD70350D1
:10097200015C04500258D8A004D00350015E045018
:10098200025AD89004320332052EF1D701C001F089
:1009920002C002F01200046E050E046405D0000EBF
:1009A200026E000E016E1200000EC26EC28004447E
:1009B200E846FC0BC2120B0E036E620EE82EFED747
:1009C200032EFCD700D0C282C2B2FED7C290C3CFE0
:1009D20001F0C4CF02F012000BD09EA8FED701C0D6
:1009E200F6FF02C0F7FF0800F5CFADFF014A022A69
:1009F20001C0F6FF02C0F7FF0800F5500009D8B4A5
:100A02001200EBD7000EF86E060EF76E000111EF22
:100A120003F0016E9EA8FED701C0ADFF1200000ECA
:080A2200C16E8A0EC06E1200C5
:020000040020DA
:08000000FFFFFFFFFFFFFFFF00
:020000040030CA
:0E000000FF031F3CFFB580FF0FC00FE00F4055
:00000001FF
